S01000004C6162325F332E342E73726563DF
S11300000C9434000C9451000C9451000C94510045
S11300100C9451000C9451000C9451000C94510018
S11300200C9451000C9451000C94B8000C945100A1
S11300300C9451000C94FC000C9413010C9451008A
S11300400C9451000C9451000C9451000C945100E8
S11300500C9451000C9451000C9451000C945100D8
S11300600C9451000C94510011241FBECFEFD8E022
S1130070DEBFCDBF11E0A0E0B1E0E0E6F6E002C0F3
S113008005900D92AC31B107D9F721E0ACE1B1E0B4
S113009001C01D92AE32B207E1F70E94B2010C9486
S11300A02E030C940000CF93C82F8A3019F48DE0EE
S11300B00E945300E0ECF0E0808185FFFDCFC09307
S11300C0C60080E090E0CF910895E0ECF0E08081FC
S11300D08823ECF78091C60090E008951092C50043
S11300E087E68093C400E0ECF0E080818D7F80831C
S11300F086E08093C20088E18093C100E8E2F1E0E9
S11301008EE091E09383828380E091E09183808309
S1130110089520912201309123018091240190912E
S113012025012817390748F4809120019091210175
S11301300197909321018093200180912201909155
S113014023012091240130912501821B930B90936C
S11301501F0180931E0180912001909121018091C3
S11301601E0190911F0190931D0180931C0108951D
S11301701F920F920FB60F9211248F939F93EF93B8
S1130180FF938091260190912701892B99F0E1E852
S1130190F0E0808180648083B59A8091860090919C
S11301A087009093250180932401109227011092D7
S11301B0260114C0E1E8F0E080818F7B8083B59A4A
S11301C0809186009091870090932301809322016F
S11301D081E090E09093270180932601EFE6F0E020
S11301E080818F7D8083FF91EF919F918F910F90FC
S11301F00FBE0F901F9018951F920F920FB60F927B
S113020011248F939F938091200190912101019655
S113021090932101809320019F918F910F900FBEA5
S11302200F901F9018951F920F920FB60F921124E2
S11302302F938F939F93EF93FF9380911C01909141
S11302401D018E359B4F18F08CE387BD3EC0809115
S11302501C0190911D018F3A984F18F080E487BDDE
S113026034C080911C0190911D018115964F18F0A6
S113027087E487BD2AC080911C0190911D018135BE
S1130280934F18F080E587BD20C080911C019091A8
S11302901D01823A904F18F08AE587BD16C08091FF
S11302A01C0190911D01833F9D4E18F08FE587BD81
S11302B00CC080911C0190911D0184349B4E18F058
S11302C08BE687BD02C088E787BDEEE6F0E080815B
S11302D08D7F8083FF91EF919F918F912F910F904C
S11302E00FBE0F901F901895CF92DF92EF92FF925E
S11302F0CF93DF93E8E8F0E085E090E0918380839A
S113030060817181C0917800D091790080E090E0A3
S11303100E94A0026B017C01BE0180E090E00E947B
S1130320A0029B01AC0160E070E08FE294E40E94C3
S1130330FF0120E030E040EA50E40E94FF019B010D
S1130340AC01C701B6010E94FF010E9471027093C3
S11303508B0060938A00DF91CF91FF90EF90DF9044
S1130360CF9008950E946E0014B880E48AB917B83B
S11303704098A0E8B0E01C92E1E8F0E0108210920E
S1130380820084B1866084B95E9A299A10928500AD
S11303901092840084B5826484BD85B5836085BD74
S11303A08C9183628C9380818D608083ECE7F0E094
S11303B0808180648083EAE7F0E0808180688083C4
S11303C08081876080838081806280838081806473
S11303D08083EBE7F0E08081887F808378940FE668
S11303E010E0CEE6D0E0F8018081816280830E9433
S11303F089000E947401888182608883F4CF0E94FE
S113040013020C94F4020E94ED0258F00E94E602DA
S113041040F029F45F3F29F00C94DD0251110C9453
S113042028030C94E3020E94050368F39923B1F3B3
S1130430552391F3951B550BBB27AA276217730706
S1130440840738F09F5F5F4F220F331F441FAA1F9A
S1130450A9F335D00E2E3AF0E0E832D09150504056
S1130460E695001CCAF72BD0FE2F29D0660F771F04
S1130470881FBB1F261737074807AB07B0E809F0EA
S1130480BB0B802DBF01FF2793585F4F3AF09E3F6F
S1130490510578F00C94DD020C9428035F3FE4F3DB
S11304A0983ED4F3869577956795B795F7959F5FB2
S11304B0C9F7880F911D9695879597F90895E1E0FE
S11304C0660F771F881FBB1F621773078407BA075D
S11304D020F0621B730B840BBA0BEE1F88F7E095B8
S11304E008950E940D0388F09F5798F0B92F99271B
S11304F0B751B0F0E1F0660F771F881F991F1AF00B
S1130500BA95C9F714C0B13091F00E942703B1E045
S113051008950C942703672F782F8827B85F39F044
S1130520B93FCCF3869577956795B395D9F73EF4A3
S113053090958095709561957F4F8F4F9F4F08954B
S1130540E89409C097FB3EF4909580957095619569
S11305507F4F8F4F9F4F9923A9F0F92F96E9BB271F
S11305609395F695879577956795B795F111F8CF9B
S1130570FAF4BB0F11F460FF1BC06F5F7F4F8F4F06
S11305809F4F16C0882311F096E911C0772321F0FC
S11305909EE8872F762F05C0662371F096E8862F94
S11305A070E060E02AF09A95660F771F881FDAF7EB
S11305B0880F9695879597F9089597F99F6780E82E
S11305C070E060E008959FEF80EC089500240A94A1
S11305D01616170618060906089500240A9412161A
S11305E01306140605060895092E0394000C11F44D
S11305F0882352F0BB0F40F4BF2B11F460FF04C0FA
S11306006F5F7F4F8F4F9F4F089557FD9058440F52
S1130610551F59F05F3F71F04795880F97FB991F5D
S113062061F09F3F79F0879508951216130614061A
S1130630551FF2CF4695F1DF08C0161617061806A7
S1130640991FF1CF86957105610508940895E89482
S1130650BB2766277727CB0197F90895F894FFCF36
S11306600000000100000000000065000000000020
S10F067000020000000053000000000025
S9030000FC
