S01000004C6162325F322E332E73726563E1
S11300000C9434000C9451000C9451000C94510045
S11300100C9451000C9451000C9451000C94510018
S11300200C9451000C9451000C94F6000C94510063
S11300300C9451000C9435010C944C010C94510017
S11300400C9451000C9451000C9451000C945100E8
S11300500C9451000C9451000C9451000C945100D8
S11300600C9451000C94510011241FBECFEFD8E022
S1130070DEBFCDBF11E0A0E0B1E0EEE7FDE002C0DD
S113008005900D92A232B107D9F721E0A2E2B1E0C6
S113009001C01D92A633B207E1F70E94B8000C9488
S11300A0BD060C940000CF93C82F8A3019F48DE05C
S11300B00E945300E0ECF0E0808185FFFDCFC09307
S11300C0C60080E090E0CF910895E0ECF0E08081FC
S11300D08823ECF78091C60090E008951092C50043
S11300E087E68093C400E0ECF0E080818D7F80831C
S11300F086E08093C20088E18093C100E0E3F1E0F0
S113010080E191E09383828382E091E09183808314
S1130110089520912A0130912B0180912C01909116
S11301202D012817390748F480912801909129015D
S11301300197909329018093280180912A0190913D
S11301402B0120912C0130912D01821B930B909354
S113015027018093260180912801909129018091A3
S113016026019091270190932501809324010895FD
S11301700E946E0014B88FEF87B98AB9109280007C
S1130180E1E8F0E0108210928200219A569A2298B7
S113019085B1866285B9AFE6B0E08C9181628C93BB
S11301A080818264808384B5826484BD85B58460E3
S11301B085BD16BC1092850010928400789404E8E2
S11301C010E06894FF24F1F8CEE6D0E0F8018081D5
S11301D09181099728F085B18F2585B91182108204
S11301E00E948900888182608883F0CF1F920F92D9
S11301F00FB60F9211248F939F93EF93FF938091E7
S11302002E0190912F01892B99F0E1E8F0E0808193
S113021080648083B59A8091860090918700909342
S11302202D0180932C0110922F0110922E0114C0E5
S1130230E1E8F0E080818F7B8083B59A809186002D
S11302409091870090932B0180932A0181E090E0A4
S113025090932F0180932E01FF91EF919F918F91A5
S11302600F900FBE0F901F9018951F920F920FB60C
S11302700F9211248F939F938091280190912901CB
S1130280019690932901809328019F918F910F905B
S11302900FBE0F901F9018951F920F920FB60F92DA
S11302A011242F933F934F935F936F937F938F9377
S11302B09F93AF93BF93EF93FF9380912401909109
S11302C025019195819591099093230180932201B1
S11302D08091220190912301843F914034F484EF72
S11302E091E09093230180932201809122019091C7
S11302F023018938934134F088E893E190932301F2
S1130300809322016091220170912301072E000C39
S1130310880B990B0E94E60220E030E44CE955E496
S11303200E943C0220E030E040E751E40E94720366
S113033020E030E040E551E40E94D0010E94AE028A
S1130340709301016093000180910001909101017B
S113035087BD80910001909101019F938F938EE15D
S113036091E09F938F930E94DF03EEE6F0E080819B
S11303708D7F80830F900F900F900F90FF91EF91DE
S1130380BF91AF919F918F917F916F915F914F91A9
S11303903F912F910F900FBE0F901F9018955058BA
S11303A0BB27AA270E94E7010C9438030E942A0362
S11303B038F00E94310320F039F49F3F19F426F4F9
S11303C00C9427030EF4E095E7FB0C942103E92F2A
S11303D00E94490358F3BA17620773078407950705
S11303E020F079F4A6F50C946B030EF4E0950B2E33
S11303F0BA2FA02D0B01B90190010C01CA01A00173
S11304001124FF27591B99F0593F50F4503E68F1CD
S11304101A16F040A22F232F342F4427585FF3CF0E
S1130420469537952795A795F0405395C9F77EF4DF
S11304301F16BA0B620B730B840BBAF09150A1F028
S1130440FF0FBB1F661F771F881FC2F70EC0BA0FAE
S1130450621F731F841F48F4879577956795B79536
S1130460F7959E3F08F0B0CF9395880F08F0992731
S1130470EE0F9795879508950E9450020C943803C7
S11304800E94310358F00E942A0340F029F45F3F90
S113049029F00C94210351110C946C030C94270340
S11304A00E94490368F39923B1F3552391F3951BF3
S11304B0550BBB27AA2762177307840738F09F5F81
S11304C05F4F220F331F441FAA1FA9F335D00E2EEE
S11304D03AF0E0E832D091505040E695001CCAF75B
S11304E02BD0FE2F29D0660F771F881FBB1F26171E
S11304F037074807AB07B0E809F0BB0B802DBF01F5
S1130500FF2793585F4F3AF09E3F510578F00C94C3
S113051021030C946C035F3FE4F3983ED4F3869577
S113052077956795B795F7959F5FC9F7880F911DE4
S11305309695879597F90895E1E0660F771F881FD0
S1130540BB1F621773078407BA0720F0621B730B83
S1130550840BBA0BEE1F88F7E09508950E94B5024C
S11305606894B1110C946C0308950E94510388F0AF
S11305709F5798F0B92F9927B751B0F0E1F0660F63
S1130580771F881F991F1AF0BA95C9F714C0B130A4
S113059091F00E946B03B1E008950C946B03672FF4
S11305A0782F8827B85F39F0B93FCCF386957795D3
S11305B06795B395D9F73EF49095809570956195BC
S11305C07F4F8F4F9F4F0895E89409C097FB3EF4E7
S11305D090958095709561957F4F8F4F9F4F99238C
S11305E0A9F0F92F96E9BB279395F695879577950A
S11305F06795B795F111F8CFFAF4BB0F11F460FFCA
S11306001BC06F5F7F4F8F4F9F4F16C0882311F021
S113061096E911C0772321F09EE8872F762F05C035
S1130620662371F096E8862F70E060E02AF09A95D0
S1130630660F771F881FDAF7880F9695879597F9C5
S1130640089597F99F6780E870E060E008959FEF50
S113065080EC089500240A94161617061806090655
S1130660089500240A941216130614060506089524
S1130670092E0394000C11F4882352F0BB0F40F4AC
S1130680BF2B11F460FF04C06F5F7F4F8F4F9F4FEC
S1130690089557FD9058440F551F59F05F3F71F06E
S11306A04795880F97FB991F61F09F3F79F08795D5
S11306B00895121613061406551FF2CF4695F1DF5E
S11306C008C0161617061806991FF1CF86957105EE
S11306D0610508940895E894BB2766277727CB0122
S11306E097F908950E9485030C9438030E942A0305
S11306F038F00E94310320F0952311F00C9421036B
S11307000C94270311240C946C030E94490370F386
S1130710959FC1F3950F50E0551F629FF001729FA2
S1130720BB27F00DB11D639FAA27F00DB11DAA1FB1
S1130730649F6627B00DA11D661F829F2227B00DFE
S1130740A11D621F739FB00DA11D621F839FA00D89
S1130750611D221F749F3327A00D611D231F849FD9
S1130760600D211D822F762F6A2F11249F57504030
S11307709AF0F1F088234AF0EE0FFF1FBB1F661FAB
S1130780771F881F91505040A9F79E3F510580F074
S11307900C9421030C946C035F3FE4F3983ED4F370
S11307A0869577956795B795F795E7959F5FC1F718
S11307B0FE2B880F911D9695879597F90895A0E0D3
S11307C0B0E0E5EEF3E00C949606AE014B5F5F4FAC
S11307D0FA0161917191AF018091320190913301DD
S11307E00E94F503E2E00C94B206ABE0B0E0EBEF5C
S11307F0F3E00C9486066C017B018A01FC011782EC
S11308001682838181FFCCC1CE0101963C01F601A1
S11308109381F70193FD859193FF81917F01882353
S113082009F4BAC1853239F493FD859193FF81911E
S11308307F01853229F4B60190E00E94EC05E7CFF0
S1130840912C212C312CFFE1F315D8F08B3279F067
S113085038F4803279F08332A1F4232D20611DC055
S11308608D3261F0803369F4232D216016C0832D0D
S11308708260382EE32DE4603E2E2AC0F32DF8600A
S11308801DC037FC2DC020ED280F2A3040F08E32D9
S1130890B9F436FC81C1232D2064322E19C036FEF2
S11308A006C08AE0989E200D1124922E11C0EAE021
S11308B02E9E200D1124222EF32DF0623F2E08C00F
S11308C08C3621F4832D8068382E02C0883641F49A
S11308D0F70193FD859193FF81917F018111B3CF3E
S11308E0982F9F7D9554933028F40C5F1F4F9FE3FE
S11308F099830DC0833631F0833771F0833509F065
S113090059C021C0F801808189830E5F1F4F88245C
S11309108394912C530113C02801F2E04F0E511C13
S1130920F801A080B18036FE03C0692D70E002C0DA
S11309306FEF7FEFC5010E94E1054C018201F32DA9
S1130940FF773F2E16C0280122E0420E511CF80109
S1130950A080B18036FE03C0692D70E002C06FEF45
S11309607FEFC5010E94D6054C01F32DF0683F2EA0
S1130970820133FC1BC0822D90E088169906B0F4E6
S1130980B60180E290E00E94EC052A94F4CFF501D0
S113099037FC859137FE81915F01B60190E00E949A
S11309A0EC0521102A9421E0821A91088114910403
S11309B071F7E8C0843611F0893641F5F80137FE45
S11309C007C060817181828193810C5F1F4F08C0D1
S11309D060817181072E000C880B990B0E5F1F4FED
S11309E0F32DFF763F2E97FF09C090958095709563
S11309F061957F4F8F4F9F4FF0683F2E2AE030E084
S1130A00A3010E942806882E861845C0853731F434
S1130A10232D2F7EB22E2AE030E025C0932D997F1E
S1130A20B92E8F36C1F018F4883579F0B5C0803707
S1130A3019F0883721F0B0C0E92FE061BE2EB4FE72
S1130A400DC0FB2DF460BF2E09C034FE0AC0292F4F
S1130A502660B22E06C028E030E005C020E130E078
S1130A6002C020E132E0F801B7FE07C06081718165
S1130A70828193810C5F1F4F06C06081718180E089
S1130A8090E00E5F1F4FA3010E942806882E86184F
S1130A90FB2DFF773F2E36FE0DC0232D2E7FA22E79
S1130AA0891458F434FE0BC032FC09C0832D8E7EA9
S1130AB0A82E05C0B82CA32C03C0B82C01C0B92C97
S1130AC0A4FE0FC0FE01E80DF11D8081803321F4E6
S1130AD09A2D997EA92E09C0A2FE06C0B394B394A0
S1130AE004C08A2D867809F0B394A3FC11C0A0FE3B
S1130AF006C0B21488F4280C922C9B180EC0B214B1
S1130B0060F4B60180E290E00E94EC05B394F7CF64
S1130B10B21418F42B1802C0982C212CA4FE10C077
S1130B20B60180E390E00E94EC05A2FE17C0A1FC90
S1130B3003C088E790E002C088E590E0B6010CC0ED
S1130B408A2D867859F0A1FE02C08BE201C080E2B2
S1130B50A7FC8DE2B60190E00E94EC05891438F4FC
S1130B60B60180E390E00E94EC059A94F7CF8A9452
S1130B70F301E80DF11D8081B60190E00E94EC05BF
S1130B808110F5CF222009F442CEB60180E290E034
S1130B900E94EC052A94F6CFF6018681978102C063
S1130BA08FEF9FEF2B96E2E10C94A206FC010590D7
S1130BB0615070400110D8F7809590958E0F9F1F5B
S1130BC00895FC016150704001900110D8F78095A0
S1130BD090958E0F9F1F08950F931F93CF93DF93CC
S1130BE0FB01238121FD03C08FEF9FEF2CC022FF67
S1130BF016C046815781248135814217530744F436
S1130C00A081B1819D012F5F3F4F318320838C935D
S1130C10268137812F5F3F4F3783268314C08B0192
S1130C20EC01FB010084F185E02D0995892BE1F6A7
S1130C30D80116968D919C911797019617969C93BF
S1130C408E931697CE01DF91CF911F910F91089546
S1130C50FA01AA27283051F1203181F1E8946F93E9
S1130C606E7F6E5F7F4F8F4F9F4FAF4FB1E03ED08F
S1130C70B4E03CD0670F781F891F9A1FA11D680F2D
S1130C80791F8A1F911DA11D6A0F711D811D911D60
S1130C90A11D20D009F468943F912AE0269F1124D5
S1130CA03019305D3193DEF6CF010895462F477039
S1130CB0405D4193B3E00FD0C9F7F6CF462F4F7094
S1130CC0405D4A3318F0495D31FD4052419302D0F2
S1130CD0A9F7EACFB4E0A695979587957795679598
S1130CE0BA95C9F700976105710508959B01AC0198
S1130CF00A2E06945795479537952795BA95C9F7BF
S1130D00620F731F841F951FA01D08952F923F9299
S1130D104F925F926F927F928F929F92AF92BF9207
S1130D20CF92DF92EF92FF920F931F93CF93DF93B3
S1130D30CDB7DEB7CA1BDB0B0FB6F894DEBF0FBE10
S1130D40CDBF09942A88398848885F846E847D845D
S1130D508C849B84AA84B984C884DF80EE80FD805F
S1130D600C811B81AA81B981CE0FD11D0FB6F894D5
S1110D70DEBF0FBECDBFED010895F894FFCF96
S1130D7EC800000000010000000000006500000033
S1130D8E0000000200000000530000000000256473
S1050D9E0A0045
S9030000FC
