:100000000C9434000C9446000C9446000C9446006A
:100010000C9446000C9446000C9446000C94460048
:100020000C9446000C9446000C9448000C94460036
:100030000C9446000C9446000C9446000C94460028
:100040000C9446000C9446000C9446000C94460018
:100050000C9446000C9446000C9446000C94460008
:100060000C9446000C94460011241FBECFEFD8E03C
:10007000DEBFCDBF21E0A0E0B1E001C01D92A23003
:10008000B207E1F70E9460000C9483000C9400001A
:100090001F920F920FB60F9211248F939F9380910E
:1000A00000019091010180959095909301018093BA
:1000B00000019F918F910F900FBE0F901F90189588
:1000C00080E284B991E095B980936F00E1E8F0E0B7
:1000D00085E0808380818F7B8083B59A10920101B7
:1000E0001092000178948091000190910101892B78
:1000F00029F02D9A808180648083F5CF2D988081AE
:0A0100008F7B8083F0CFF894FFCFCF
:00000001FF
