:100000000C9434000C9451000C9451000C94510049
:100010000C9451000C9451000C9451000C9451001C
:100020000C9451000C9451000C94FF000C9451005E
:100030000C9451000C9443010C945A010C945100FF
:100040000C9451000C9451000C9451000C945100EC
:100050000C9451000C9451000C9451000C945100DC
:100060000C9451000C94510011241FBECFEFD8E026
:10007000DEBFCDBF11E0A0E0B1E0EAEEFEE002C0DD
:1000800005900D92AA35B107D9F721E0AAE5B1E0B4
:1000900001C01D92AE36B207E1F70E94B8000C9481
:1000A00073070C940000CF93C82F8A3019F48DE0A9
:1000B0000E945300E0ECF0E0808185FFFDCFC0930B
:1000C000C60080E090E0CF910895E0ECF0E0808100
:1000D0008823ECF78091C60090E008951092C50047
:1000E00087E68093C400E0ECF0E080818D7F808320
:1000F00086E08093C20088E18093C100E8E6F1E0E9
:1001000080E191E09383828382E091E09183808318
:100110000895209162013091630180916401909172
:1001200065012817390748F48091600190916101B9
:100130000197909361018093600180916201909199
:1001400063012091640130916501821B930B9093B0
:100150005F0180935E0180916001909161018091C7
:100160005E0190915F0190935D0180935C01089521
:100170000E946E0014B88FEF87B980E48AB910929C
:100180008000E1E8F0E0108210928200219A20982D
:100190005E9A85B1866085B9AFE6B0E08C918162E8
:1001A0008C938081826480831092850010928400F9
:1001B00084B5826484BD85B5846085BD78940FE67E
:1001C00010E00F2EF4E8EF2EF12CF02D6894DD24D2
:1001D000D1F8CEE6D0E0F801808181628083F7011A
:1001E00080819181099728F085B18D2585B911828B
:1001F00010820E948900888182608883ECCF1F92E0
:100200000F920FB60F9211248F939F93EF93FF934A
:100210008091660190916701892B99F0E1E8F0E007
:10022000808180648083B59A809186009091870058
:1002300090936501809364011092670110926601AA
:1002400014C0E1E8F0E080818F7B8083B59A8091D3
:10025000860090918700909363018093620181E012
:1002600090E09093670180936601EFE6F0E0808173
:100270008F7D8083FF91EF919F918F910F900FBEA3
:100280000F901F9018951F920F920FB60F92112486
:100290008F939F938091600190916101019690935B
:1002A0006101809360019F918F910F900FBE0F901D
:1002B0001F9018951F920F920FB60F9211242F9333
:1002C0003F934F935F936F937F938F939F93AF93DE
:1002D000BF93EF93FF931A9B62C080915C01909152
:1002E0005D0191958195910990935B0180935A01ED
:1002F00080915A0190915B01843F914034F484EFE6
:1003000091E090935B0180935A0180915A01909102
:100310005B018938934134F088E893E190935B0165
:1003200080935A0160915A0170915B01072E000C75
:10033000880B990B0E949C0320E030E44CE955E4C3
:100340000E94F20220E030E040E751E40E942804DD
:1003500020E030E040E551E40E9486020E94640300
:10036000709301016093000180910001909101015F
:1003700087BD80910001909101019F938F9386E545
:1003800091E09F938F930E949504EEE6F0E08081C8
:100390008D7F80830F900F900F900F90A5C080915C
:1003A0005C0190915D018E359B4F58F08FE087BDC9
:1003B0008EE191E09F938F930E9495040F900F9090
:1003C00076C080915C0190915D018F3A984F58F012
:1003D00080E187BD82E291E09F938F930E94950414
:1003E0000F900F9064C080915C0190915D01811528
:1003F000964F58F082E187BD86E291E09F938F93FC
:100400000E9495040F900F9052C080915C019091D2
:100410005D018135934F58F084E187BD8AE291E018
:100420009F938F930E9495040F900F9040C08091EE
:100430005C0190915D01823A904F58F086E187BD52
:100440008EE291E09F938F930E9495040F900F90FE
:100450002EC080915C0190915D01833F9D4E58F0CC
:1004600088E187BD82E391E09F938F930E9495047A
:100470000F900F901CC080915C0190915D018434BD
:100480009B4E58F08AE187BD86E391E09F938F935E
:100490000E9495040F900F900AC08EE187BD8AE3F9
:1004A00091E09F938F930E9495040F900F90EEE63A
:1004B000F0E080818D7F808327B580915C019091F1
:1004C0005D011F922F939195819591099F938F9331
:1004D0008EE391E09F938F930E9495040F900F906D
:1004E0000F900F900F900F90FF91EF91BF91AF91F0
:1004F0009F918F917F916F915F914F913F912F913C
:100500000F900FBE0F901F9018955058BB27AA2729
:100510000E949D020C94EE030E94E00338F00E94BA
:10052000E70320F039F49F3F19F426F40C94DD031F
:100530000EF4E095E7FB0C94D703E92F0E94FF032C
:1005400058F3BA17620773078407950720F079F408
:10055000A6F50C9421040EF4E0950B2EBA2FA02DD5
:100560000B01B90190010C01CA01A0011124FF2760
:10057000591B99F0593F50F4503E68F11A16F0405B
:10058000A22F232F342F4427585FF3CF469537955A
:100590002795A795F0405395C9F77EF41F16BA0B1F
:1005A000620B730B840BBAF09150A1F0FF0FBB1FCD
:1005B000661F771F881FC2F70EC0BA0F621F731F16
:1005C000841F48F4879577956795B795F7959E3F73
:1005D00008F0B0CF9395880F08F09927EE0F979504
:1005E000879508950E9406030C94EE030E94E7038A
:1005F00058F00E94E00340F029F45F3F29F00C948A
:10060000D70351110C9422040C94DD030E94FF03C4
:1006100068F39923B1F3552391F3951B550BBB2731
:10062000AA2762177307840738F09F5F5F4F220F76
:10063000331F441FAA1FA9F335D00E2E3AF0E0E86D
:1006400032D091505040E695001CCAF72BD0FE2FB7
:1006500029D0660F771F881FBB1F2617370748074B
:10066000AB07B0E809F0BB0B802DBF01FF27935803
:100670005F4F3AF09E3F510578F00C94D7030C94ED
:1006800022045F3FE4F3983ED4F38695779567950F
:10069000B795F7959F5FC9F7880F911D9695879538
:1006A00097F90895E1E0660F771F881FBB1F621757
:1006B00073078407BA0720F0621B730B840BBA0B15
:1006C000EE1F88F7E09508950E946B036894B111BE
:1006D0000C94220408950E94070488F09F5798F014
:1006E000B92F9927B751B0F0E1F0660F771F881F37
:1006F000991F1AF0BA95C9F714C0B13091F00E9451
:100700002104B1E008950C942104672F782F8827E5
:10071000B85F39F0B93FCCF3869577956795B39577
:10072000D9F73EF490958095709561957F4F8F4FE6
:100730009F4F0895E89409C097FB3EF490958095EB
:10074000709561957F4F8F4F9F4F9923A9F0F92F97
:1007500096E9BB279395F695879577956795B79515
:10076000F111F8CFFAF4BB0F11F460FF1BC06F5FFB
:100770007F4F8F4F9F4F16C0882311F096E911C00D
:10078000772321F09EE8872F762F05C0662371F02E
:1007900096E8862F70E060E02AF09A95660F771F42
:1007A000881FDAF7880F9695879597F9089597F936
:1007B0009F6780E870E060E008959FEF80EC089507
:1007C00000240A9416161706180609060895002430
:1007D0000A9412161306140605060895092E0394AA
:1007E000000C11F4882352F0BB0F40F4BF2B11F41E
:1007F00060FF04C06F5F7F4F8F4F9F4F089557FD7D
:100800009058440F551F59F05F3F71F04795880F7E
:1008100097FB991F61F09F3F79F087950895121615
:1008200013061406551FF2CF4695F1DF08C01616C1
:1008300017061806991FF1CF869571056105089472
:100840000895E894BB2766277727CB0197F9089589
:100850000E943B040C94EE030E94E00338F00E94D7
:10086000E70320F0952311F00C94D7030C94DD03DB
:1008700011240C9422040E94FF0370F3959FC1F38E
:10088000950F50E0551F629FF001729FBB27F00D3E
:10089000B11D639FAA27F00DB11DAA1F649F662793
:1008A000B00DA11D661F829F2227B00DA11D621FE2
:1008B000739FB00DA11D621F839FA00D611D221F9C
:1008C000749F3327A00D611D231F849F600D211D80
:1008D000822F762F6A2F11249F5750409AF0F1F003
:1008E00088234AF0EE0FFF1FBB1F661F771F881F6C
:1008F00091505040A9F79E3F510580F00C94D703CA
:100900000C9422045F3FE4F3983ED4F386957795E8
:100910006795B795F795E7959F5FC1F7FE2B880F11
:10092000911D9695879597F90895A0E0B0E0EBE9C1
:10093000F4E00C944C07AE014B5F5F4FFA016191FC
:100940007191AF0180916A0190916B010E94AB049B
:10095000E2E00C946807ABE0B0E0E1EBF4E00C946B
:100960003C076C017B018A01FC011782168283819E
:1009700081FFCCC1CE0101963C01F6019381F701C4
:1009800093FD859193FF81917F01882309F4BAC17A
:10099000853239F493FD859193FF81917F018532F2
:1009A00029F4B60190E00E94A206E7CF912C212CF9
:1009B000312CFFE1F315D8F08B3279F038F4803226
:1009C00079F08332A1F4232D20611DC08D3261F0B6
:1009D000803369F4232D216016C0832D8260382E68
:1009E000E32DE4603E2E2AC0F32DF8601DC037FCD5
:1009F0002DC020ED280F2A3040F08E32B9F436FC9D
:100A000081C1232D2064322E19C036FE06C08AE033
:100A1000989E200D1124922E11C0EAE02E9E200DEA
:100A20001124222EF32DF0623F2E08C08C3621F4C3
:100A3000832D8068382E02C0883641F4F70193FD7B
:100A4000859193FF81917F018111B3CF982F9F7D75
:100A50009554933028F40C5F1F4F9FE399830DC08A
:100A6000833631F0833771F0833509F059C021C0E6
:100A7000F801808189830E5F1F4F88248394912C15
:100A8000530113C02801F2E04F0E511CF801A08061
:100A9000B18036FE03C0692D70E002C06FEF7FEFBA
:100AA000C5010E9497064C018201F32DFF773F2E6E
:100AB00016C0280122E0420E511CF801A080B1802E
:100AC00036FE03C0692D70E002C06FEF7FEFC501F5
:100AD0000E948C064C01F32DF0683F2E820133FCFE
:100AE0001BC0822D90E088169906B0F4B60180E212
:100AF00090E00E94A2062A94F4CFF50137FC85917C
:100B000037FE81915F01B60190E00E94A20621109C
:100B10002A9421E0821A91088114910471F7E8C0A7
:100B2000843611F0893641F5F80137FE07C060813F
:100B30007181828193810C5F1F4F08C06081718138
:100B4000072E000C880B990B0E5F1F4FF32DFF76BD
:100B50003F2E97FF09C090958095709561957F4FC6
:100B60008F4F9F4FF0683F2E2AE030E0A3010E9494
:100B7000DE06882E861845C0853731F4232D2F7E5A
:100B8000B22E2AE030E025C0932D997FB92E8F3602
:100B9000C1F018F4883579F0B5C0803719F088377E
:100BA00021F0B0C0E92FE061BE2EB4FE0DC0FB2DD8
:100BB000F460BF2E09C034FE0AC0292F2660B22E71
:100BC00006C028E030E005C020E130E002C020E1AE
:100BD00032E0F801B7FE07C06081718182819381A4
:100BE0000C5F1F4F06C06081718180E090E00E5F56
:100BF0001F4FA3010E94DE06882E8618FB2DFF776B
:100C00003F2E36FE0DC0232D2E7FA22E891458F4C0
:100C100034FE0BC032FC09C0832D8E7EA82E05C089
:100C2000B82CA32C03C0B82C01C0B92CA4FE0FC053
:100C3000FE01E80DF11D8081803321F49A2D997E0B
:100C4000A92E09C0A2FE06C0B394B39404C08A2D95
:100C5000867809F0B394A3FC11C0A0FE06C0B214BC
:100C600088F4280C922C9B180EC0B21460F4B601C4
:100C700080E290E00E94A206B394F7CFB21418F479
:100C80002B1802C0982C212CA4FE10C0B60180E3C2
:100C900090E00E94A206A2FE17C0A1FC03C088E754
:100CA00090E002C088E590E0B6010CC08A2D8678FD
:100CB00059F0A1FE02C08BE201C080E2A7FC8DE2E8
:100CC000B60190E00E94A206891438F4B60180E3D0
:100CD00090E00E94A2069A94F7CF8A94F301E80D5F
:100CE000F11D8081B60190E00E94A2068110F5CF2F
:100CF000222009F442CEB60180E290E00E94A206D2
:100D00002A94F6CFF6018681978102C08FEF9FEF7C
:100D10002B96E2E10C945807FC010590615070405D
:100D20000110D8F7809590958E0F9F1F0895FC01B4
:100D30006150704001900110D8F7809590958E0F0A
:100D40009F1F08950F931F93CF93DF93FB01238180
:100D500021FD03C08FEF9FEF2CC022FF16C04681FC
:100D60005781248135814217530744F4A081B18112
:100D70009D012F5F3F4F318320838C9326813781E4
:100D80002F5F3F4F3783268314C08B01EC01FB019B
:100D90000084F185E02D0995892BE1F6D80116969E
:100DA0008D919C911797019617969C938E93169709
:100DB000CE01DF91CF911F910F910895FA01AA27DB
:100DC000283051F1203181F1E8946F936E7F6E5F8E
:100DD0007F4F8F4F9F4FAF4FB1E03ED0B4E03CD03C
:100DE000670F781F891F9A1FA11D680F791F8A1F1F
:100DF000911DA11D6A0F711D811D911DA11D20D086
:100E000009F468943F912AE0269F11243019305D3F
:100E10003193DEF6CF010895462F4770405D419330
:100E2000B3E00FD0C9F7F6CF462F4F70405D4A337D
:100E300018F0495D31FD4052419302D0A9F7EACF45
:100E4000B4E0A6959795879577956795BA95C9F774
:100E500000976105710508959B01AC010A2E069467
:100E60005795479537952795BA95C9F7620F731F20
:100E7000841F951FA01D08952F923F924F925F925D
:100E80006F927F928F929F92AF92BF92CF92DF929A
:100E9000EF92FF920F931F93CF93DF93CDB7DEB7FF
:100EA000CA1BDB0B0FB6F894DEBF0FBECDBF099493
:100EB0002A88398848885F846E847D848C849B84EA
:100EC000AA84B984C884DF80EE80FD800C811B81F8
:100ED000AA81B981CE0FD11D0FB6F894DEBF0FBE27
:0A0EE000CDBFED010895F894FFCF97
:100EEA00C8000000000100000000000065000000CA
:100EFA000000000200000000530000000000433719
:100F0A00200042372000413720004736200046366D
:100F1A0020004536200044362000433620007075F4
:100F2A006C73655F77696474683A2025642C204F76
:0A0F3A00435230413A2025640A00BA
:00000001FF
