S01000004C6162325F312E322E73726563E3
S11300000C9434000C943E000C943E000C943E007E
S11300100C943E000C943E000C943E000C943E0064
S11300200C943E000C943E000C943E000C943E0054
S11300300C943E000C943E000C9452000C943E0030
S11300400C943E000C943E000C943E000C943E0034
S11300500C943E000C943E000C943E000C943E0024
S11300600C943E000C943E0011241FBECFEFD8E048
S1130070DEBFCDBF0E9440000C9461000C940000D0
S113008080E48AB991E094B9289A5E9A84BD84E0A8
S113009085BD82E080936E0016BC87B5895B87BD01
S11300A07894FFCF1F920F920FB60F9211248F9363
S11300B087B5895B87BD8F910F900FBE0F901F90FE
S10900C01895F894FFCF2F
S9030000FC
